S01700004763634170706C69636174696F6E332E7372656359
S113000045C00000C9C10000DAC10000EBC1000016
S1130010FCC100000DC200001EC200002FC200007F
S113002040C2000051C000004FC000004DC000009D
S1130030D8C0000049C0000047C0000045C000000F
S113004043C0000041C000003FC000003DC00000AC
S11300503BC0000039C0000037C0000035C00000BC
S113006033C0000031C000002DC100002DC00000CD
S11300702BC0000029C0000027C0000025C00000DC
S113008023C0000021C000001FC0000011241FBEB7
S1130090CFEFD0E1DEBFCDBF11E0A0E0B1E0E6EEEE
S11300A0F1E100E00BBF02C007900D92A237B10747
S11300B0D9F721E0A2E7B1E001C01D92A739B20748
S11300C0E1F7E9D30C94F1089BCF8FE891E0019715
S11300D0F1F700C0000008951F93CF93DF93182F0A
S11300E0C0E0D1E283E08883F0DF1093002082E057
S11300F0888387EC90E00197F1F700C00000DF915E
S1130100CF911F91089580E885BF94E490936D008A
S113011080936C00109200211092002008950F9398
S11301201F93CF93C82F00E011E281E0F801808390
S1130130CCDFC0930020F8011082C150C23030F4EB
S11301408FE39FE10197F1F700C00000CF911F9169
S11301500F91089582E0809300218FE39FE101973E
S1130160F1F700C000008FE59AEE0197F1F700C0A7
S1130170000080E3D4DF8FE19EE40197F1F700C033
S1130180000080E3CCDF8FE99FE00197F1F700C026
S1130190000082E3C4DF88E3C2DF88E0C0DF81E0DF
S11301A0BEDF86E0BCDF8CE0BACF0895CF93C82FC2
S11301B08CDF8C2F91DFCF910895CF93DF93EC01E7
S11301C002C0F4DF219688818111FBCFDF91CF91AA
S11301D0089590E4899F600D1124862F80689FCF35
S11301E008951F920F920FB60F9211240BB60F921F
S11301F02F933F934F935F936F937F938F939F932B
S1130200EF93FF9370918A01E72FF0E0E357FE4FDD
S113021090816091810160831092820127C0292F0F
S1130220262730E0482F50E0082E02C03595279548
S11302300A94E2F720FF17C0292F30E0082E02C0ED
S1130240359527950A94E2F720FF07C0FA01ED5788
S1130250FE4F20812150208306C0FA01ED57FE4F46
S113026020812F5F20838F5F8093820180918201A0
S11302708830A8F281E0870F80938A018A3011F4D4
S113028010928A0181E080938C01FF91EF919F91FC
S11302908F917F916F915F914F913F912F910F902B
S11302A00BBE0F900FBE0F901F9018951FBC8DE0D2
S11302B08EBD87B7806187BF84E39CE09BBD8ABD08
S11302C0789408951F920F920FB60F9211240BB6D3
S11302D00F922F933F938F939F93EF93FF9380916C
S11302E060018F5F809360018C3338F080916101ED
S11302F08F5F8093610110926001809161018C3362
S113030038F0809162018F5F8093620110926101E5
S113031080916201883110F01092620120E01BC0CC
S1130320822F90E0FC01ED57FE4F3081363058F4B7
S1130330880F991FFC01ED58FE4F80819181019631
S11303409183808307C0880F991FFC01ED58FE4FED
S1130350118210822F5F273018F3FF91EF919F9144
S11303608F913F912F910F900BBE0F900FBE0F9066
S11303701F90189510928B008DE080938A00EDE712
S1130380F0E080818061808388E893E19093870026
S113039080938600789408951F920F920FB60F925F
S11303A011248F9380917201811103C085E08093A1
S11303B072018F910F900FBE0F901F9018951F928E
S11303C00F920FB60F9211248F93809172018111B5
S11303D003C086E0809372018F910F900FBE0F903F
S11303E01F9018951F920F920FB60F9211248F939E
S11303F080917201811103C083E0809372018F9117
S11304000F900FBE0F901F9018951F920F920FB66A
S11304100F9211248F9380917201811103C087E0A0
S1130420809372018F910F900FBE0F901F901895BB
S11304301F920F920FB60F9211248F938091720125
S1130440811103C081E0809372018F910F900FBEE0
S11304500F901F9018951F920F920FB60F921124B0
S11304608F9380917201811103C082E080937201A5
S11304708F910F900FBE0F901F9018951F920F929F
S11304800FB60F9211248F9380917201811103C0D2
S113049083E0809372018F910F900FBE0F901F9095
S11304A018951F920F920FB60F9211248F9380917B
S11304B07201811103C084E0809372018F910F90C7
S11304C00FBE0F901F90189511BA8FEF82BB8093C7
S11304D06A008ABF89BF88E082B987EF83B97894BC
S11304E00895CF93DF9300D01F92CDB7DEB7AC0150
S11304F01B829C013695279536952795ABE7B4E189
S11305004DD69C013695279564E6629FC001639F92
S1130510900D11249A01281B390BADECBCEC3ED68E
S1130520969587959695879596958795805D898309
S11305309A0134D69695879596958795969587953D
S11305409C01220F331F880F991F880F991F880F52
S1130550991F820F931F9A01281B390BC901805DD3
S11305608A83CE01019629DE0F900F900F90DF91C0
S1130570CF910895CF93DF9300D000D0CDB7DEB7ED
S1130580AC011C821B829C013695279536952795D4
S113059036952795A5ECB0E201D6929582958F7099
S11305A089279F70892768EE73E0869F9001879F53
S11305B0300D969F300D1124CA01821B930B9C01B0
S11305C03695279536952795ABE7B4E1E7D596950B
S11305D08795805D89839A01369527953695279569
S11305E0DDD59C013695279564E6629FC001639F23
S11305F0900D11249A01281B390BADECBCECCED51F
S1130600969587959695879596958795805D8A8327
S11306109A01C4D5969587959695879596958795CD
S11306209C01220F331F880F991F880F991F880F71
S1130630991F820F931F9A01281B390BC901805DF2
S11306408B83CE010196B9DD0F900F900F900F9020
S1130650DF91CF910895CF93DF93CDB7DEB72D9778
S11306600FB6F894DEBF0FBECDBF60E0B2DDFE0171
S113067033968BE0DF011D928A95E9F79091620130
S113068029E2929F812D112482958F7044E6392F9F
S1130690849F301911248DEC389F312D1124369507
S11306A036953695305D3983989F312D11243695D2
S11306B036953695330F532F550F550F350F931B22
S11306C0905D9A8398E69B8360E26C8390916101CC
S11306D0929F312D112432953F70B92F349FB01958
S11306E01124B89F312D1124369536953695305DF9
S11306F03D83989F312D1124369536953695330FC9
S1130700532F550F550F350F931B905D9E839DE618
S11307109F83688790916001929F212D11242295D7
S11307202F70392F249F30191124389F212D112423
S1130730269526952695205D2987989F812D11243D
S1130740869586958695880F282F220F220F820F73
S1130750981B905D9A8783E78B87CE0101962DDDE8
S11307602D960FB6F894DEBF0FBECDBFDF91CF91AB
S113077008958F929F92AF92BF92CF92DF92EF92A1
S1130780FF92CF93DF93EB01E5E6F0E02081286050
S11307902083BC0180E090E0D5D34B015C0120E0D4
S11307A030E04AE755E45CD46B017C0120E030E0A2
S11307B040E85FE397D3882304F120E03FEF4FE75D
S11307C057E4C701B60148D418169CF420E030E081
S11307D040E251E4C501B40143D488D306C080E9A2
S11307E091E00197F1F76150710961157105B9F74D
S11307F009C0C701B6017AD302C061E070E0CB0141
S11308000197F1F7E5E6F0E08081877F8083BE0100
S113081080E090E097D34B015C0120E030E04AE7B0
S113082055E41ED46B017C0120E030E040E85FE336
S113083059D3882304F120E03FEF4FE757E4C70181
S1130840B6010AD418169CF420E030E040E251E4EA
S1130850C501B40105D44AD306C080E991E00197EB
S1130860F1F76150710961157105B9F709C0C70144
S1130870B6013CD302C061E070E0CB010197F1F70F
S1130880DF91CF91FF90EF90DF90CF90BF90AF902A
S11308909F908F900895CF93DF93CDB7DEB72E97B7
S11308A00FB6F894DEBF0FBECDBF80EF87BBE4E682
S11308B0F0E080818860808326DC4CDC15E0153014
S11308C071F460E080E085DC83E591E076DC60E053
S11308D081E07FDC80918B0190E04CDE31C060E0F0
S11308E080E077DC123048F41BC0E82FF0E0EE5BC8
S11308F0FE4F90E290838F5F01C08CE08F30A8F3AD
S1130900143021F488E68093510114C0133021F48B
S11309108DE6809351010EC083E7809351010AC094
S1130920E2E4F1E08EE6848785E6858788E78687BA
S113093084E7878782E491E040DC81E090E08BDE0D
S113094086B38E3071F5153039F480918B0188238C
S113095019F0815080938B01143039F48091620135
S1130960882319F0815080936201133039F4809107
S11309706101882319F0815080936101123039F4A8
S113098080916001882319F081508093600180ED8B
S113099097E005C0E0E9F1E03197F1F7019700979E
S11309A0C9F786B38D3071F5153039F480918B0118
S11309B08F3F19F08F5F80938B01143039F480914D
S11309C06201873119F08F5F80936201133039F42B
S11309D0809161018B3319F08F5F80936101123034
S11309E039F4809160018B3319F08F5F809360013B
S11309F080ED97E005C0E0E9F1E03197F1F7019768
S1130A000097C9F786B38B3071F4153061F0A2DB1F
S1130A101F5F80ED97E005C0E0E9F1E03197F1F761
S1130A2001970097C9F786B3873009F048CF115072
S1130A3059F080ED97E005C0E0E9F1E03197F1F776
S1130A4001970097C9F73BCF95DC30DC3DDD82DBB5
S1130A5020918B01822F90E068EE73E08CD364E6E2
S1130A6070E089D3E1E3F1E080E3860F838789E2D4
S1130A70289F812D112482958F70922F34E6839FB5
S1130A80901911248DEC989F912D1124969596958B
S1130A909695905D9487289F812D1124869586953F
S1130AA08695880F982F990F990F890F281B822FED
S1130AB0805D85871092720100E080918C01813005
S1130AC009F075C01092810187E083BF83B188600B
S1130AD083B985E38A95F1F783B1877F83B9089B4E
S1130AE0FECF12BE54C081B190E0012E02C0959594
S1130AF087950A94E2F780FF19C062B770E080E03E
S1130B0090E022D22DE23DEA40E852E4A5D2181644
S1130B106CF481E090E0012E02C0880F991F0A94C2
S1130B20E2F790918101892B809381011F5F01C0BD
S1130B3010E01330C0F214E028C080B3E12EF12C91
S1130B4090E0012E02C0959587950A94E2F780FF04
S1130B501BC062B770E080E090E0F6D12DE23DEA80
S1130B6040E852E479D218167CF481E0E81AF108DE
S1130B7081E090E002C0880F991FEA94E2F7909117
S1130B808101892B809381011F5F1830B0F262B715
S1130B9070E080E090E0D8D12EE13EED49E852E4E7
S1130BA0A1D188230CF4C4CF13BE10928C0180E031
S1130BB0CC24C394D12CEE24E394F12C16C0E82F5A
S1130BC0F0E0EE0FFF1FED58FE4F208131812E150E
S1130BD03F0518F06701790107C0C216D30620F457
S1130BE02E153F0508F469018F5F873040F380912B
S1130BF0620187508C3068F025E1E216F1043CF084
S1130C003AE0C316D1041CF480EF88BB53C018BA71
S1130C1051C08FE1E816F1043CF02AE0C216D10479
S1130C201CF480EF88BB46C018BA44C0E1E3F1E08D
S1130C308DE286878DEC989F812D1124869586956B
S1130C408695880F282F220F220F820F981B905D04
S1130C50978760E080E0BDDA81E391E0AEDA10E0EE
S1130C601DC086B38F708F3049F010927201E1E39A
S1130C70F1E080E2868787876DDA12C08DEF810FFD
S1130C80833030F068EC70E082E390E072DD05C000
S1130C9068EC70E086E990E06CDD1F5F193008F3C2
S1130CA080ED97E005C0E0E9F1E03197F1F70197B5
S1130CB00097C9F790917201992319F00E3009F445
S1130CC0B5CF87E0E3E6F1E0DE01189601900D92DE
S1130CD08A95E1F787E0EAE6F1E0DE0111960190FA
S1130CE00D928A95E1F786B38F708F3019F006B3B1
S1130CF00F7030DA60E080E06CDA0C30A9F58BE23A
S1130D0091E05BDA10E022C0812F90E0E8E0F0E0AF
S1130D10EC0FFD1FE80FF91F6081E1E0F0E0EC0F3C
S1130D20FD1FE80FF91F808154DA2091810130E022
S1130D30012E02C0359527950A94E2F781E090E0F0
S1130D4020FF02C080E090E0CCDB1F5F1730E0F2B0
S1130D506CE081E03EDA8091810190E0809590958D
S1130D608F77992707DCA9CE0A3059F584E291E000
S1130D7024DA10E018C0E12EF12CE8E0F0E0EC0FEA
S1130D80FD1FEE0DFF1D6081E1E0F0E0EC0FFD1FA3
S1130D90EE0DFF1D80811DDAF701ED57FE4F8081B6
S1130DA090E09FDB1F5F173030F36CE081E011DAD5
S1130DB08091810190E0809590958F779927DADB77
S1130DC07CCE063069F58DE191E0F7D910E01AC0C8
S1130DD0E12EF12CE8E0F0E0EC0FFD1FEE0DFF1D1D
S1130DE06081E1E0F0E0EC0FFD1FEE0DFF1D80815E
S1130DF0F0D9F701EE0FFF1FED58FE4F808191816E
S1130E0070DB1F5F173020F36CE081E0E2D9809142
S1130E10810190E0809590958F779927ABDB4DCE3B
S1130E20053089F460E080E0D4D982E191E0C5D94D
S1130E30C701A0DB60E081E0CCD987E091E0BDD9B7
S1130E40C60198DB3ACE093009F044C080E091E055
S1130E50B4D9F1B080B330E1839FC0011124F6947A
S1130E60F694F694F694F82A10E021C0812F90E0CD
S1130E70E8E0F0E0EC0FFD1FE80FF91F6081E1E00E
S1130E80F0E0EC0FFD1FE80FF91F8081A2D92F2D90
S1130E9030E0012E02C0359527950A94E2F781E0EF
S1130EA090E020FF02C080E090E01BDB1F5F163063
S1130EB0E8F269E081E08DD981E090E0FF2014F44C
S1130EC080E090E00EDB6CE081E083D98F2D90E030
S1130ED051DBF3CD81E391E070D981E090E0BBDB9D
S1130EE00EE0EBCD6CD008F481E0089594D088F046
S1130EF09F5790F0B92F9927B751A0F0D1F0660F02
S1130F00771F881F991F1AF0BA95C9F712C0B1301C
S1130F1081F09BD0B1E0089598C0672F782F88277F
S1130F20B85F39F0B93FCCF3869577956795B3955B
S1130F30D9F73EF490958095709561957F4F8F4FCA
S1130F409F4F0895E89409C097FB3EF490958095CF
S1130F50709561957F4F8F4F9F4F9923A9F0F92F7B
S1130F6096E9BB279395F695879577956795B795F9
S1130F70F111F8CFFAF4BB0F11F460FF1BC06F5FDF
S1130F807F4F8F4F9F4F16C0882311F096E911C0F1
S1130F90772321F09EE8872F762F05C0662371F012
S1130FA096E8862F70E060E02AF09A95660F771F26
S1130FB0881FDAF7880F9695879597F90895990F02
S1130FC00008550FAA0BE0E8FEEF16161706E8070F
S1130FD0F907C0F012161306E407F50798F0621B30
S1130FE0730B840B950B39F40A2661F0232B242B05
S1130FF0252B21F408950A2609F4A140A6958FEF24
S1131000811D811D089557FD9058440F551F59F0B7
S11310105F3F71F04795880F97FB991F61F09F3FE1
S113102079F087950895121613061406551FF2CF0A
S11310304695F1DF08C0161617061806991FF1CF5A
S113104086957105610508940895E894BB27662781
S11310507727CB0197F90895B2DF08F48FEF08954D
S11310600BD078C069D028F06ED018F0952309F021
S11310705AC05FC01124EACFC6DFA0F3959FD1F315
S1131080950F50E0551F629FF001729FBB27F00D32
S1131090B11D639FAA27F00DB11DAA1F649F662787
S11310A0B00DA11D661F829F2227B00DA11D621FD6
S11310B0739FB00DA11D621F839FA00D611D221F90
S11310C0749F3327A00D611D231F849F600D211D74
S11310D0822F762F6A2F11249F5750408AF0E1F017
S11310E088234AF0EE0FFF1FBB1F661F771F881F60
S11310F091505040A9F79E3F510570F014C0A6CFFF
S11311005F3FECF3983EDCF3869577956795B7954A
S1131110F795E7959F5FC1F7FE2B880F911D969574
S1131120879597F9089597F99F6780E870E060E0E4
S113113008959FEF80EC089500240A94161617066C
S113114018060906089500240A94121613061406B4
S113115005060895092E0394000C11F4882352F017
S1131160BB0F40F4BF2B11F460FF04C06F5F7F4FCF
S11311708F4F9F4F089597FB072E16F4009406D0C7
S113118077FD08D01AD007FC05D03EF490958195E0
S11311909F4F0895709561957F4F0895A29FB00168
S11311A0B39FC001A39F700D811D1124911DB29F97
S11311B0700D811D1124911D0895AA1BBB1B51E1C3
S11311C007C0AA1FBB1FA617B70710F0A61BB70BB3
S11311D0881F991F5A95A9F780959095BC01CD0158
S10911E00895F894FFCF0E
S11311E66D6F74696F6E007365636F6E6420203A69
S11311F620006C617267657374203A2000656C6127
S11312067073650066696C74657200736F6E6963EA
S1131216006C6F636174696F6E203A203030302041
S11312262000736574205761746368202020202091
S1131236202000736574206C6F636174696F6E009F
S11312461E1E0C070A0D0003060900000001010119
S1051256010091
S9030000FC
