:1000000045C0000060C000005EC000005CC0000091
:100010005AC0000058C0000056C0000054C0000084
:1000200052C0000050C000004EC000004CC0000094
:10003000D7C0000048C0000046C0000044C0000017
:1000400042C0000040C000003EC000003CC00000B4
:100050003AC0000038C0000036C0000034C00000C4
:1000600032C0000030C000002CC100002CC00000D5
:100070002AC0000028C0000026C0000024C00000E4
:1000800022C0000020C000001EC0000011241FBEBE
:10009000CFEFD0E1DEBFCDBF11E0A0E0B1E0E8E3FB
:1000A000F9E000E00BBF02C007900D92A831B10744
:1000B000D9F721E0A8E1B1E001C01D92AB33B2074E
:1000C000E1F750D237C49CCF8FE891E00197F1F768
:1000D00000C0000008951F93CF93DF93182FC0E056
:1000E000D1E283E08883F0DF1093002082E08883F0
:1000F00087EC90E00197F1F700C00000DF91CF910D
:100100001F91089580E885BF94E490936D008093DB
:100110006C00109200211092002008950F931F93FD
:10012000CF93C82F00E011E281E0F8018083CCDF9B
:10013000C0930020F8011082C150C23030F48FE328
:100140009FE10197F1F700C00000CF911F910F913F
:10015000089582E0809300218FE39FE10197F1F7FA
:1001600000C000008FE59AEE0197F1F700C0000093
:1001700080E3D4DF8FE19EE40197F1F700C0000037
:1001800080E3CCDF8FE99FE00197F1F700C000002A
:1001900082E3C4DF88E3C2DF88E0C0DF81E0BEDF46
:1001A00086E0BCDF8CE0BACF0895CF93C82F8CDFF8
:1001B0008C2F91DFCF910895CF93DF93EC0102C094
:1001C000F4DF219688818111FBCFDF91CF910895D3
:1001D00090E4899F600D1124862F80689FCF089539
:1001E0001F920F920FB60F9211240BB60F922F93FE
:1001F0003F934F935F936F937F938F939F93EF936F
:10020000FF9370912F01E72FF0E0EF5CFE4F90819C
:100210006091260160831092270127C0292F26278D
:1002200030E0482F50E0082E02C0359527950A94FB
:10023000E2F720FF17C0292F30E0082E02C03595C5
:1002400027950A94E2F720FF07C0FA01E85DFE4F08
:1002500020812150208306C0FA01E85DFE4F2081F5
:100260002F5F20838F5F8093270180912701883043
:10027000A8F281E0870F80932F018A3011F4109249
:100280002F0181E080933001FF91EF919F918F9139
:100290007F916F915F914F913F912F910F900BBE86
:1002A0000F900FBE0F901F9018951FBC8DE08EBD54
:1002B00087B7806187BF84E39CE09BBD8ABD78944B
:1002C00008951F920F920FB60F9211240BB60F9242
:1002D0002F933F938F939F93EF93FF9380911101FF
:1002E0009091120101969093120180931101CC9785
:1002F0006CF0809113019091140101969093140178
:100300008093130110921201109211018091130138
:1003100090911401CC976CF0809115019091160189
:10032000019690931601809315011092140110927A
:1003300013018091150190911601489724F01092B5
:1003400016011092150120E01BC0822F90E0FC01E5
:10035000E85DFE4F3081363058F4880F991FFC015C
:10036000E85EFE4F8081918101969183808307C072
:10037000880F991FFC01E85EFE4F118210822F5FEB
:10038000273018F3FF91EF919F918F913F912F911B
:100390000F900BBE0F900FBE0F901F9018951092EC
:1003A0008B008DE080938A00EDE7F0E08081806132
:1003B000808388E09DE39093870080938600789403
:1003C0000895CF93DF9300D000D0CDB7DEB7AC0156
:1003D0001C821B829C01369527953695279536956C
:1003E0002795A5ECB0E283D2929582958F708927EC
:1003F0009F70892768EE73E0869F9001879F300D7C
:10040000969F300D1124CA01821B930B9C013695D7
:10041000279536952795ABE7B4E169D296958795F0
:10042000805D89839A0136952795369527955FD209
:100430009C013695279564E6629FC001639F900DED
:1004400011249A01281B390BADECBCEC50D29695C7
:1004500087959695879596958795805D8A839A016D
:1004600046D29695879596958795969587959C0102
:10047000220F331F880F991F880F991F880F991F0C
:10048000820F931F9A01281B390BC901805D8B8352
:10049000CE01019691DE0F900F900F900F90DF919B
:1004A000CF9108950F931F93CF93DF93CDB7DEB70E
:1004B0002D970FB6F894DEBF0FBECDBF60E088DE8B
:1004C000FE0133968BE0DF011D928A95E9F70091DA
:1004D000150110911601E4E6F0E0C801BF01F4D166
:1004E0002AE030E0B901F0D1605D6983C801B9014B
:1004F000EBD1805D8A8388E68B8340E24C83009158
:10050000130110911401C801BF01DED1B901DCD182
:10051000605D6D83C801B901D7D1805D8E838DE6A2
:100520008F8348870091110110911201C801BF010A
:10053000CBD1B901C9D1605D6987C801B901C4D106
:10054000805D8A8783E78B87CE01019635DE2D9605
:100550000FB6F894DEBF0FBECDBFDF91CF911F91D4
:100560000F91089580EF87BB80E882B98FE783B948
:100570008CB18CB9C7DDEDDDC4E0B6C060E080E0D1
:1005800027DEC23048F41BC0E82FF0E0E050FF4FF8
:1005900090E290838F5F01C08CE08F30A8F3C4306D
:1005A00021F488E680930F0114C0C33021F48DE656
:1005B00080930F010EC083E780930F010AC0E0E033
:1005C000F1E08EE6848785E6858788E7868784E77D
:1005D000878780E091E0F0DD81E090E063DF86B323
:1005E0008E3081F5C43059F4809115019091160137
:1005F000009729F001979093160180931501C3305D
:1006000059F48091130190911401009729F00197FA
:100610009093140180931301C23059F48091110119
:1006200090911201009729F0019790931201809305
:1006300011012FEF83EC99E0215080409040E1F7C9
:1006400000C0000086B38D3099F5C43061F480910C
:100650001501909116018731910529F0019690932B
:10066000160180931501C33061F4809113019091BC
:1006700014018B33910529F0019690931401809316
:100680001301C23061F480911101909112018B33FA
:10069000910529F0019690931201809311012FEF9B
:1006A00083EC99E0215080409040E1F700C00000C9
:1006B00086B38B3061F4C43051F0CF5F2FEF83EC01
:1006C00099E0215080409040E1F700C0000086B3DF
:1006D000873051F4C1502FEF83EC99E021508040D6
:1006E0009040E1F700C00000C11148CF58DEDDDDC9
:1006F00030DD80913001813009F049C0109226012F
:1007000087E083BF83B1806883B925E32A95F1F739
:10071000000083B18F7783B9089BFECF12BE28C03B
:1007200081B190E00C2E02C0959587950A94E2F76E
:1007300080FF19C062B770E080E090E062D02DE2E7
:100740003DEA40E852E4BCD018166CF481E090E039
:100750000C2E02C0880F991F0A94E2F7909126018F
:10076000892B80932601CF5F01C0C0E0C730C0F263
:1007700062B770E080E090E044D02EE13EED49E8C1
:1007800052E439D088238CF313BE1092300160E01C
:1007900080E01EDDC8E1D1E08881998112DE64E04D
:1007A00080E016DD8A819B810CDE68E080E010DD50
:1007B0008C819D8106DE6CE080E00ADD8E819F8168
:1007C00000DE60E081E004DD88859985FADD64E083
:1007D00081E0FEDC8A859B85F4DD68E081E0F8DC61
:1007E0008C859D85EEDD6CE081E0F2DC8091260158
:1007F00090E0E7DD7ECF40D008F481E00895E894F2
:1008000009C097FB3EF490958095709561957F4F58
:100810008F4F9F4F9923A9F0F92F96E9BB27939506
:10082000F695879577956795B795F111F8CFFAF416
:10083000BB0F11F460FF1BC06F5F7F4F8F4F9F4F47
:1008400016C0882311F096E911C0772321F09EE8A5
:10085000872F762F05C0662371F096E8862F70E00B
:1008600060E02AF09A95660F771F881FDAF7880FE5
:100870009695879597F90895990F0008550FAA0B3B
:10088000E0E8FEEF16161706E807F907C0F01216A3
:100890001306E407F50798F0621B730B840B950BA6
:1008A00039F40A2661F0232B242B252B21F40895FB
:1008B0000A2609F4A140A6958FEF811D811D089598
:1008C000DBDF08F48FEF089597FB072E16F40094F2
:1008D00006D077FD08D01AD007FC05D03EF49095DD
:1008E00081959F4F0895709561957F4F0895A29FC0
:1008F000B001B39FC001A39F700D811D1124911DF4
:10090000B29F700D811D1124911D0895AA1BBB1B60
:1009100051E107C0AA1FBB1FA617B70710F0A61BFF
:10092000B70B881F991F5A95A9F780959095BC0120
:08093000CD010895F894FFCFFA
:10093800736574205761746368202020202020206C
:08094800001E001E000C00005F
:00000001FF
