S01700004763634170706C69636174696F6E332E7372656359
S113000045C0000053C0000051C000004FC00000B4
S11300104DC000004BC0000049C0000047C00000B4
S113002045C0000043C0000041C000003FC00000C4
S1130030CAC000003BC0000039C0000037C0000047
S113004035C0000033C0000031C000002FC00000E4
S11300502DC000002BC0000029C0000027C00000F4
S113006025C0000023C0000021C000001FC0000004
S11300701DC000001BC0000019C0000017C0000014
S113008015C0000013C0000011C0000011241FBEE1
S1130090CFEFD0E1DEBFCDBF21E0A0E0B1E001C0F1
S11300A01D92A631B207E1F770D170C2A9CF8FE8D3
S11300B091E00197F1F700C0000008951F93CF93DA
S11300C0DF93182FC0E0D1E283E08883F0DF109340
S11300D0002082E0888387EC90E00197F1F700C06C
S11300E00000DF91CF911F91089580E885BF94E4CB
S11300F090936D0080936C00109200211092002068
S113010008950F931F93CF93C82F00E011E281E06D
S1130110F8018083CCDFC0930020F8011082C15025
S1130120C23030F48FE39FE10197F1F700C0000083
S1130130CF911F910F91089582E0809300218FE366
S11301409FE10197F1F700C000008FE59AEE019757
S1130150F1F700C0000080E3D4DF8FE19EE4019753
S1130160F1F700C0000080E3CCDF8FE99FE0019746
S1130170F1F700C0000082E3C4DF88E3C2DF88E057
S1130180C0DF81E0BEDF86E0BCDF8CE0BACF08953B
S1130190CF93C82F8CDF8C2F91DFCF910895CF930D
S11301A0DF93EC0102C0F4DF219688818111FBCF3B
S11301B0DF91CF91089590E4899F600D1124862FDB
S11301C080689FCF08951F920F920FB60F9211244B
S11301D00BB60F922F933F934F935F936F937F933D
S11301E08F939F93EF93FF9370910A01E72FF0E0B1
S11301F0E55FFE4F908160910001608310920101E0
S113020027C0292F262730E0482F50E0082E02C0AF
S1130210359527950A94E2F720FF17C0292F30E07F
S1130220082E02C0359527950A94E2F720FF07C0EF
S1130230FA01EE5FFE4F20812150208306C0FA01AF
S1130240EE5FFE4F20812F5F20838F5F809301013B
S1130250809101018830A8F281E0870F80930A0120
S11302608A3011F410920A0181E080931501FF9104
S1130270EF919F918F917F916F915F914F913F91FA
S11302802F910F900BBE0F900FBE0F901F901895DB
S11302901FBC8DE08EBD87B7806187BF84E39CE07F
S11302A09BBD8ABD78940895CF93DF9300D000D08E
S11302B0CDB7DEB7AC011C821B829C013695279515
S11302C03695279536952795A5ECB0E250D19295B1
S11302D082958F7089279F70892768EE73E0869FC7
S11302E09001879F300D969F300D1124CA01821B07
S11302F0930B9C013695279536952795ABE7B4E18A
S113030036D196958795805D89839A013695279590
S1130310369527952CD19C013695279564E6629FE6
S1130320C001639F900D11249A01281B390BADEC79
S1130330BCEC1DD19695879596958795969587954E
S1130340805D8A839A0113D19695879596958795B2
S1130350969587959C01220F331F880F991F880F4C
S1130360991F880F991F820F931F9A01281B390B1D
S1130370C901805D8B83CE01019611DF0F900F9030
S11303800F900F90DF91CF91089580E882B98FE7A5
S113039083B97EDFAADED0DE80911501813009F0B9
S11303A049C01092000187E083BF83B1806883B99C
S11303B085E38A95F1F7000083B18F7783B9089BB1
S11303C0FECF12BE28C081B190E00C2E02C09595DC
S11303D087950A94E2F780FF19C062B770E080E065
S11303E090E062D02DE23DEA40E852E4BCD0181619
S11303F06CF481E090E00C2E02C0880F991F0A94DF
S1130400E2F790910001892B80930001CF5F01C036
S1130410C0E0C730C0F262B770E080E090E044D042
S11304202EE13EED49E852E439D088238CF313BE23
S11304301092150160E080E0BEDEC2E0D1E0888168
S113044090E032DF64E080E0B6DE898190E02CDF6A
S113045068E080E0B0DE8A8190E026DF6CE080E036
S1130460AADE8B8190E020DF60E081E0A4DE8C8155
S113047090E01ADF64E081E09EDE8D8190E014DF7D
S113048068E081E098DE8E8190E00EDF6CE081E030
S113049092DE8091000190E007DF7ECF40D008F427
S11304A081E00895E89409C097FB3EF49095809507
S11304B0709561957F4F8F4F9F4F9923A9F0F92F26
S11304C096E9BB279395F695879577956795B795A4
S11304D0F111F8CFFAF4BB0F11F460FF1BC06F5F8A
S11304E07F4F8F4F9F4F16C0882311F096E911C09C
S11304F0772321F09EE8872F762F05C0662371F0BD
S113050096E8862F70E060E02AF09A95660F771FD0
S1130510881FDAF7880F9695879597F90895990FAC
S11305200008550FAA0BE0E8FEEF16161706E807B9
S1130530F907C0F012161306E407F50798F0621BDA
S1130540730B840B950B39F40A2661F0232B242BAF
S1130550252B21F408950A2609F4A140A6958FEFCE
S1130560811D811D0895DBDF08F48FEF0895A29F9C
S1130570B001B39FC001A39F700D811D1124911D73
S1130580B29F700D811D1124911D0895F894FFCF21
S9030000FC
