:1000000045C0000060C000005EC000005CC0000091
:100010005AC0000058C0000056C0000054C0000084
:1000200052C0000050C000004EC000004CC0000094
:10003000D7C0000048C0000046C0000044C0000017
:1000400042C0000040C000003EC000003CC00000B4
:100050003AC0000038C0000036C0000034C00000C4
:1000600032C0000030C000002EC000002CC00000D4
:100070002AC0000028C0000026C0000024C00000E4
:1000800022C0000020C000001EC0000011241FBEBE
:10009000CFEFD0E1DEBFCDBF11E0A0E0B1E0EAE1FB
:1000A000F5E000E00BBF02C007900D92A430B1074D
:1000B000D9F721E0A4E0B1E001C01D92A932B20756
:1000C000E1F7BAD128C29CCF8FE891E00197F1F710
:1000D00000C0000008951F93CF93DF93182FC0E056
:1000E000D1E283E08883F0DF1093002082E08883F0
:1000F00087EC90E00197F1F700C00000DF91CF910D
:100100001F91089580E885BF94E490936D008093DB
:100110006C00109200211092002008950F931F93FD
:10012000CF93C82F00E011E281E0F8018083CCDF9B
:10013000C0930020F8011082C150C23030F48FE328
:100140009FE10197F1F700C00000CF911F910F913F
:10015000089582E0809300218FE39FE10197F1F7FA
:1001600000C000008FE59AEE0197F1F700C0000093
:1001700080E3D4DF8FE19EE40197F1F700C0000037
:1001800080E3CCDF8FE99FE00197F1F700C000002A
:1001900082E3C4DF88E3C2DF88E0C0DF81E0BEDF46
:1001A00086E0BCDF8CE0BACF0895CF93C82F8CDFF8
:1001B0008C2F91DFCF910895CF93DF93EC0102C094
:1001C000F4DF219688818111FBCFDF91CF910895D3
:1001D00090E4899F600D1124862F80689FCF089539
:1001E0001F920F920FB60F9211240BB60F922F93FE
:1001F0003F934F935F938F939F93EF93FF9320E0F1
:1002000017C0E0910B01F0E0E45FFE4F8081E22F28
:10021000F0E090E0022E02C0959587950A94E2F7EF
:1002200080FF05C0EC5FFE4F8081815080832F5F8F
:10023000283038F350910B01E52FF0E046B3E45F2E
:10024000FE4F408380E012C0E82FF0E0242F30E022
:10025000082E02C0359527950A94E2F720FF05C0C5
:10026000EC5FFE4F90819F5F90838F5F883060F3DB
:1002700081E0850F80930B0190E02091000130E038
:100280002F5F3F4F8217930711F410920B01FF91DC
:10029000EF919F918F915F914F913F912F910F908F
:1002A0000BBE0F900FBE0F901F9018951FBC8DE0D6
:1002B0008EBD87B7806187BF809101019091020157
:1002C0009BBD8ABD789408950F931F93CF93DF93BE
:1002D00000D000D000D0CDB7DEB78C01FE01339640
:1002E00084E0DF011D928A95E9F7B80180E090E093
:1002F00020EA36E841E050E0C1D020E137E240E0BA
:1003000050E0BCD0205D29839801329522952F7052
:1003100023273F702327A7E4B3E0CCD09695879599
:10032000969587959695879540E157E2849F900131
:10033000859F300D949F300D1124C801821B930BB3
:100340009C01369527953695279536952795A5ECEA
:10035000B0E2B0D0929582958F7089279F708927DF
:10036000805D8A8398013695279536952795369531
:100370002795A0D0929582958F7089279F708927A5
:1003800048EE53E0849F9001859F300D949F300D7F
:100390001124C801821B930B9C0136952795369535
:1003A0002795ABE7B4E186D096958795805D8B83E2
:1003B000980136952795369527957CD09C013695E2
:1003C000279544E6429FC001439F900D1124980158
:1003D000281B390BADECBCEC6DD0969587959695A6
:1003E000879596958795805D8C83980163D09695C7
:1003F000879596958795969587959C01220F331F33
:10040000880F991F880F991F880F991F820F931FBC
:100410009801281B390BC901805D8D83CE0101969F
:10042000CBDE26960FB6F894DEBF0FBECDBFDF91B0
:10043000CF911F910F91089587B3806F87BBE4E63A
:10044000F0E08081886080838CB18CB92FDF5ADE28
:1004500080DE60E080E0BCDE86B390E035DF60E007
:1004600081E0B6DEC4E0D1E0888190E02DDF67E076
:1004700081E0AEDE8F8190E027DFEBCF052E97FB8A
:1004800016F400940FD057FD05D023D007FC02D0FE
:1004900046F408C050954095309521953F4F4F4FF9
:1004A0005F4F089590958095709561957F4F8F4F20
:1004B0009F4F0895A29FB001B39FC001A39F700DED
:1004C000811D1124911DB29F700D811D1124911D5C
:1004D0000895A1E21A2EAA1BBB1BFD010DC0AA1F85
:1004E000BB1FEE1FFF1FA217B307E407F50720F09D
:1004F000A21BB30BE40BF50B661F771F881F991F18
:100500001A9469F760957095809590959B01AC0160
:0A051000BD01CF010895F894FFCF5C
:04051A001D340C0080
:00000001FF
