:1000000045C00000C9C10000DAC100005DC00000A9
:10001000E9C10000FAC100000BC200001CC20000D0
:100020002DC2000051C000004FC000004DC00000B4
:10003000D8C0000049C0000047C0000045C0000013
:1000400043C0000041C000003FC000003DC00000B0
:100050003BC0000039C0000037C0000035C00000C0
:1000600033C0000031C000002DC100002DC00000D1
:100070002BC0000029C0000027C0000025C00000E0
:1000800023C0000021C000001FC0000011241FBEBB
:10009000CFEFD0E1DEBFCDBF11E0A0E0B1E0EAECF0
:1000A000F7E100E00BBF02C007900D92A237B10745
:1000B000D9F721E0A2E7B1E001C01D92A739B2074C
:1000C000E1F7E0D30C94E30B9BCF8FE891E001972D
:1000D000F1F700C0000008951F93CF93DF93182F0E
:1000E000C0E0D1E283E08883F0DF1093002082E05B
:1000F000888387EC90E00197F1F700C00000DF9162
:10010000CF911F91089580E885BF94E490936D008E
:1001100080936C00109200211092002008950F939C
:100120001F93CF93C82F00E011E281E0F801808394
:10013000CCDFC0930020F8011082C150C23030F4EF
:100140008FE39FE10197F1F700C00000CF911F916D
:100150000F91089582E0809300218FE39FE1019742
:10016000F1F700C000008FE59AEE0197F1F700C0AB
:10017000000080E3D4DF8FE19EE40197F1F700C037
:10018000000080E3CCDF8FE99FE00197F1F700C02A
:10019000000082E3C4DF88E3C2DF88E0C0DF81E0E3
:1001A000BEDF86E0BCDF8CE0BACF0895CF93C82FC6
:1001B0008CDF8C2F91DFCF910895CF93DF93EC01EB
:1001C00002C0F4DF219688818111FBCFDF91CF91AE
:1001D000089590E4899F600D1124862F80689FCF39
:1001E00008951F920F920FB60F9211240BB60F9223
:1001F0002F933F934F935F936F937F938F939F932F
:10020000EF93FF9370918B01E72FF0E0E357FE4FE0
:1002100090816091820160831092830127C0292F11
:10022000262730E0482F50E0082E02C0359527954C
:100230000A94E2F720FF17C0292F30E0082E02C0F1
:10024000359527950A94E2F720FF07C0FA01EC578D
:10025000FE4F20812150208306C0FA01EC57FE4F4B
:1002600020812F5F20838F5F8093830180918301A2
:100270008830A8F281E0870F80938B018A3011F4D7
:1002800010928B0181E080938C01FF91EF919F91FF
:100290008F917F916F915F914F913F912F910F902F
:1002A0000BBE0F900FBE0F901F9018951FBC8DE0D6
:1002B0008EBD87B7806187BF84E39CE09BBD8ABD0C
:1002C000789408951F920F920FB60F9211240BB6D7
:1002D0000F922F933F938F939F93EF93FF93809170
:1002E00060018F5F809360018C3338F080916101F1
:1002F0008F5F8093610110926001809161018C3366
:1003000038F0809162018F5F8093620110926101E9
:1003100080916201883110F01092620120E01BC0D0
:10032000822F90E0FC01EC57FE4F3081363058F4BC
:10033000880F991FFC01ED58FE4F80819181019635
:100340009183808307C0880F991FFC01ED58FE4FF1
:10035000118210822F5F273018F3FF91EF919F9148
:100360008F913F912F910F900BBE0F900FBE0F906A
:100370001F90189510928B008DE080938A00EDE716
:10038000F0E080818061808388E09DE39093870026
:1003900080938600789408951F920F920FB60F9263
:1003A00011248F9380917201811103C085E08093A5
:1003B00072018F910F900FBE0F901F9018951F9292
:1003C0000F920FB60F9211248F93809172018111B9
:1003D00003C086E0809372018F910F900FBE0F9043
:1003E0001F9018951F920F920FB60F9211248F93A2
:1003F00080917201811103C087E0809372018F9117
:100400000F900FBE0F901F9018951F920F920FB66E
:100410000F9211248F9380917201811103C081E0AA
:10042000809372018F910F900FBE0F901F901895BF
:100430001F920F920FB60F9211248F938091720129
:10044000811103C082E0809372018F910F900FBEE3
:100450000F901F9018951F920F920FB60F921124B4
:100460008F9380917201811103C083E080937201A8
:100470008F910F900FBE0F901F9018951F920F92A3
:100480000FB60F9211248F9380917201811103C0D6
:1004900084E0809372018F910F900FBE0F901F9098
:1004A000189584E081BB8BEF82BB9FEF90936A002D
:1004B0009ABF89BF88E082B987EF83B9789408959D
:1004C000CF93DF9300D01F92CDB7DEB7AC011B8274
:1004D0009C013695279536952795ABE7B4E10E94A8
:1004E000C00B9C013695279564E6629FC001639F0F
:1004F000900D11249A01281B390BADECBCEC0E9425
:10050000C00B969587959695879596958795805D6E
:1005100089839A010E94C00B969587959695879539
:10052000969587959C01220F331F880F991F880F7E
:10053000991F880F991F820F931F9A01281B390B4F
:10054000C901805D8A83CE01019637DE0F900F903E
:100550000F90DF91CF910895CF93DF9300D000D01B
:10056000CDB7DEB7AC011C821B829C013695279566
:100570003695279536952795A5ECB0E20E94C00BDD
:10058000929582958F7089279F70892768EE73E016
:10059000869F9001879F300D969F300D1124CA01D0
:1005A000821B930B9C013695279536952795ABE7D3
:1005B000B4E10E94C00B96958795805D89839A016E
:1005C00036952795369527950E94C00B9C01369548
:1005D000279564E6629FC001639F900D11249A01E4
:1005E000281B390BADECBCEC0E94C00B969587958F
:1005F0009695879596958795805D8A839A010E9446
:10060000C00B9695879596958795969587959C01AD
:10061000220F331F880F991F880F991F880F991F6A
:10062000820F931F9A01281B390BC901805D8B83B0
:10063000CE010196C2DD0F900F900F900F90DF91C9
:10064000CF910895CF93DF93CDB7DEB72D970FB637
:10065000F894DEBF0FBECDBF60E0BBDDFE01339678
:100660008BE0DF011D928A95E9F79091620129E202
:10067000929F812D112482958F7044E6392F849F9B
:10068000301911248DEC389F312D11243695369573
:100690003695305D3983989F312D112436953695E6
:1006A0003695330F532F550F550F350F931B905D14
:1006B0009A8398E69B8360E26C8390916101929F9C
:1006C000312D112432953F70B92F349FB019112468
:1006D000B89F312D1124369536953695305D3D8382
:1006E000989F312D1124369536953695330F532F1B
:1006F000550F550F350F931B905D9E839DE69F838D
:10070000688790916001929F212D112422952F706E
:10071000392F249F30191124389F212D112426951B
:1007200026952695205D2987989F812D11248695F1
:1007300086958695880F282F220F220F820F981BEF
:10074000905D9A8783E78B87CE01019636DD2D96E3
:100750000FB6F894DEBF0FBECDBFDF91CF910895E5
:100760008F929F92AF92BF92CF92DF92EF92FF92C1
:10077000CF93DF93EB01E5E6F0E020812860208352
:10078000BC0180E090E0D0D64B015C0120E030E07D
:100790004AE755E47FD76B017C0120E030E040E878
:1007A0005FE32AD6882304F120E03FEF4FE757E4C8
:1007B000C701B6016BD718169CF420E030E040E288
:1007C00051E4C501B40166D783D606C080E991E043
:1007D0000197F1F76150710961157105B9F709C009
:1007E000C701B60175D602C061E070E0CB01019788
:1007F000F1F7E5E6F0E08081877F8083BE0180E04D
:1008000090E092D64B015C0120E030E04AE755E4ED
:1008100041D76B017C0120E030E040E85FE3ECD59C
:10082000882304F120E03FEF4FE757E4C701B6010A
:100830002DD718169CF420E030E040E251E4C501C9
:10084000B40128D745D606C080E991E00197F1F7B9
:100850006150710961157105B9F709C0C701B60189
:1008600037D602C061E070E0CB010197F1F7DF916C
:10087000CF91FF90EF90DF90CF90BF90AF909F907F
:100880008F900895CF93DF93CDB7DEB765970FB6FE
:10089000F894DEBF0FBECDBF80EF87BBE4E6F0E08B
:1008A0008081886080832FDC55DC15E0153071F481
:1008B00060E080E08EDC83E591E07FDC60E081E059
:1008C00088DC8091810190E047DE31C060E080E00B
:1008D00080DC123048F41BC0E82FF0E0EE5BFE4FE6
:1008E00090E290838F5F01C08CE08F30A8F31430CA
:1008F00021F488E68093510114C0133021F48DE671
:10090000809351010EC083E7809351010AC0E2E455
:10091000F1E08EE6848785E6858788E7868784E729
:10092000878782E491E049DC81E090E08BDE86B34A
:100930008E3071F5153039F480918101882319F0DA
:10094000815080938101143039F4809162018823B1
:1009500019F0815080936201133039F48091610164
:10096000882319F0815080936101123039F480910D
:100970006001882319F081508093600180ED97E039
:1009800005C0E0E9F1E03197F1F701970097C9F769
:1009900086B38D3071F5153039F4809181018F3F28
:1009A00019F08F5F80938101143039F480916201D6
:1009B000873119F08F5F80936201133039F4809191
:1009C00061018B3319F08F5F80936101123039F42C
:1009D000809160018B3319F08F5F8093600180ED0F
:1009E00097E005C0E0E9F1E03197F1F70197009752
:1009F000C9F786B38B3071F4153061F0ABDB1F5F44
:100A000080ED97E005C0E0E9F1E03197F1F701975B
:100A10000097C9F786B3873009F048CF115059F0D5
:100A200080ED97E005C0E0E9F1E03197F1F701973B
:100A30000097C9F73BCF9EDC39DC33DD8BDB20919F
:100A40008101822F90E068EE73E087D664E670E063
:100A500084D6E1E3F1E080E3860F838789E2289F73
:100A6000812D112482958F70922F34E6839F9019E7
:100A700011248DEC989F912D11249695969596951D
:100A8000905D9487289F812D112486958695869563
:100A9000880F982F990F990F890F281B822F805D3F
:100AA000858710927201198A80918C01813009F03A
:100AB00078C01092820187E083BF83B1886083B9D8
:100AC00085E38A95F1F783B1877F83B9089BFECFD1
:100AD00012BE57C081B190E00F2C02C0959587954A
:100AE0000A94E2F780FF19C062B770E080E090E0FE
:100AF0001DD52DE23DEA40E852E4C8D518166CF445
:100B000081E090E00F2C02C0880F991F0A94E2F751
:100B100090918201892B80938201F39401C0F12C82
:100B200062E06F15B8F66894FF24F2F827C080B32E
:100B30000F2D10E090E00F2C02C0959587950A9438
:100B4000E2F780FF1AC062B770E080E090E0EED478
:100B50002DE23DEA40E852E499D5181674F40150AC
:100B6000110981E090E002C0880F991F0A95E2F711
:100B700090918201892B80938201F39477E07F1515
:100B8000B0F662B770E080E090E0D0D42EE13EEDA8
:100B900049E852E431D488230CF4C1CF13BE10923B
:100BA0008C0180E022242394312C21E030E0388B2A
:100BB0002F871CC0E82FF0E0EE0FFF1FED58FE4F0F
:100BC000208131814F8558892417350738F061E03D
:100BD000680F6B8B1A01388B2F8707C022163306DC
:100BE00020F42417350708F419018F5F873010F3BC
:100BF0008091620187508C3008F4BFC08F8598893E
:100C00000B970CF4B0C095E0291631040CF0ABC082
:100C100080EF88BB8BEF82BB6091810170E080E048
:100C200090E084D42DE730ED4BEC5FE333D56B01DE
:100C30007C012B89622F70E080E090E077D423EE76
:100C400035EA4BE15EE326D59B01AC01C701B60155
:100C50006FD320E030E04AE754E41CD520EC3BE9B8
:100C60004BE158E465D34B015C012BEA3AEA4AEACE
:100C700050E410D56B017C0120E030E040E850E406
:100C8000C501B40107D52B013C0120E030E040E86C
:100C90005FE3C701B601B0D388230CF45CC020E049
:100CA0003FEF4FE757E4C301B201F0D418160CF040
:100CB0003DC020E030E04AE754E4C501B401A0D3D0
:100CC0004B015C0120E030E04AE755E4E3D46B01DE
:100CD0007C0120E030E040E85FE38ED3882304F11C
:100CE00020E03FEF4FE757E4C701B601CFD4181615
:100CF0009CF420E030E040E251E4C501B401CAD4E4
:100D0000E7D306C080E991E00197F1F761507109DE
:100D100061157105B9F721C0C701B601D9D302C069
:100D200061E070E0CB010197F1F717C020E030E0FF
:100D30004FE753E4C701B601A9D418163CF4C30128
:100D4000B201C6D3CB010197F1F70AC0C701B601C2
:100D5000BFD36C8B02C031E03C8B8C898A95F1F754
:100D60008FEF82BBB6C118BA8BEF82BB80E991E0EE
:100D70000197F1F78FEF82BBACC16F857889603145
:100D800071050CF4B0C075E0271631040CF0ABC04F
:100D900080EF88BB8BEF82BB6091810170E080E0C7
:100DA00090E0C4D32DE730ED4BEC5FE373D46B01DF
:100DB0007C012B89622F70E080E090E0B7D323EEB6
:100DC00035EA4BE15EE366D49B01AC01C701B60195
:100DD000AFD220E030E04AE754E45CD420EC3BE9B9
:100DE0004BE158E4A5D24B015C012BEA3AEA4AEA0E
:100DF00050E450D46B017C0120E030E040E850E446
:100E0000C501B40147D42B013C0120E030E040E8AB
:100E10005FE3C701B601F0D288230CF45CC020E088
:100E20003FEF4FE757E4C301B20130D418160CF07E
:100E30003DC020E030E04AE754E4C501B401E0D20F
:100E40004B015C0120E030E04AE755E423D46B011C
:100E50007C0120E030E040E85FE3CED2882304F15B
:100E600020E03FEF4FE757E4C701B6010FD4181653
:100E70009CF420E030E040E251E4C501B4010AD422
:100E800027D306C080E991E00197F1F7615071091D
:100E900061157105B9F721C0C701B60119D302C0A8
:100EA00061E070E0CB010197F1F717C020E030E07E
:100EB0004FE753E4C701B601E9D318163CF4C30168
:100EC000B20106D3CB010197F1F70AC0C701B60101
:100ED000FFD26D8B02C031E03D8B8D898A95F1F791
:100EE0008FEF82BBF6C018BA8BEF82BB80E991E02E
:100EF0000197F1F78FEF82BBECC0E1E3F1E08DE207
:100F000086878DEC989F812D1124869586958695F0
:100F1000880F282F220F220F820F981B905D978732
:100F200060E080E056D981E391E047D98BEF82BB46
:100F30006091810170E080E090E0F8D22AE037ED26
:100F40004BEC5FE3A7D36B017C016091720170E011
:100F500080E090E0EBD226E53EE04DE25EE39AD3FE
:100F60009B01AC01C701B601E3D120E030E04AE7C4
:100F700054E490D320EB3AE84BE159E4D9D16B012A
:100F80007C012BEA3AEA4AEA50E484D34B015C0143
:100F900020E030E040E850E4C701B6017BD32B01EC
:100FA0003C0120E030E040E85FE3C501B40124D219
:100FB00088230CF45CC020E03FEF4FE757E4C30107
:100FC000B20164D318160CF03DC020E030E04AE7CF
:100FD00054E4C701B60114D24B015C0120E030E0BB
:100FE0004AE755E457D36B017C0120E030E040E84C
:100FF0005FE302D2882304F120E03FEF4FE757E49C
:10100000C701B60143D318169CF420E030E040E25B
:1010100051E4C501B4013ED35BD206C080E991E042
:101020000197F1F76150710961157105B9F721C098
:10103000C701B6014DD202C061E070E0CB0101975B
:10104000F1F717C020E030E04FE753E4C501B401E9
:101050001DD318163CF4C301B2013AD2CB0101975B
:10106000F1F70AC0C501B40133D26A8B02C061E056
:101070006A8B8A898A95F1F78FEF82BB10E01DC0D9
:1010800086B38F708F3049F010927201E1E3F1E086
:1010900080E2868787875ED812C08DEF810F83300C
:1010A00030F068EC70E082E390E05ADB05C068EC59
:1010B00070E086E990E054DB1F5F193008F380EDA3
:1010C00097E005C0E0E9F1E03197F1F7019700976B
:1010D000C9F790917201992321F079897E3009F442
:1010E0000CCF87E0E3E6F1E0DE01189601900D9267
:1010F0008A95E1F787E0EAE6F1E0DE0111960190DA
:101100000D928A95E1F786B38F708F3021F086B308
:101110008F70898B1FD860E080E05BD889898C3024
:10112000A9F58BE291E049D810E022C0812F90E030
:10113000E8E0F0E0EC0FFD1FE80FF91F6081E1E04F
:10114000F0E0EC0FFD1FE80FF91F808142D82091DD
:10115000820130E0012E02C0359527950A94E2F70E
:1011600081E090E020FF02C080E090E0A9D91F5FFD
:101170001730E0F26CE081E02CD88091820190E0A1
:10118000809590958F779927E7D98ECC99899A3059
:1011900069F584E291E011D8F12C18C00F2D10E010
:1011A000E8E0F0E0EC0FFD1FE00FF11F6081E1E0EF
:1011B000F0E0EC0FFD1FE00FF11F80810AD8F8016D
:1011C000EC57FE4F808190E07BD9F39426E02F15F9
:1011D00028F76CE081E00E94E9008091820190E0B4
:1011E000809590958F779927B7D95ECC398936301D
:1011F00089F58DE191E00E94DD00F12C1BC00F2DDF
:1012000010E0E8E0F0E0EC0FFD1FE00FF11F60815F
:10121000E1E0F0E0EC0FFD1FE00FF11F80810E9484
:10122000E900F801EE0FFF1FED58FE4F808191811C
:1012300047D9F39466E06F1510F76CE081E00E94E7
:10124000E9008091820190E0809590958F779927B1
:1012500083D92ACC79897530B1F460E080E00E94AE
:10126000E90082E191E00E94DD008F85988974D9C0
:1012700060E081E00E94E90087E091E00E94DD00EB
:10128000C1016AD911CC8989893009F046C080E052
:1012900091E00E94DD0011B180B320E1829FC00186
:1012A000112412951F70182B00E022C0802F90E0AF
:1012B000E8E0F0E0EC0FFD1FE80FF91F6081E1E0CE
:1012C000F0E0EC0FFD1FE80FF91F80810E94E9009C
:1012D000212F30E0002E02C0359527950A94E2F7C1
:1012E00081E090E020FF02C080E090E0E9D80F5F4D
:1012F0000630E0F269E081E00E94E90081E090E0E0
:10130000112314F480E090E0DBD86CE081E00E94CF
:10131000E900812F90E020D9C7CB81E391E00E94C2
:10132000DD0081E090E08ED93EE0398BBDCB505896
:10133000BB27AA270ED070C161D130F066D120F052
:1013400031F49F3F11F41EF456C10EF4E095E7FB13
:101350004CC1E92F72D180F3BA1762077307840773
:10136000950718F071F49EF58AC10EF4E0950B2EE6
:10137000BA2FA02D0B01B90190010C01CA01A001E7
:101380001124FF27591B99F0593F50F4503E68F142
:101390001A16F040A22F232F342F4427585FF3CF83
:1013A000469537952795A795F0405395C9F77EF454
:1013B0001F16BA0B620B730B840BBAF09150A1F09D
:1013C000FF0FBB1F661F771F881FC2F70EC0BA0F23
:1013D000621F731F841F48F4879577956795B795AB
:1013E000F7959E3F08F0B3CF9395880F08F09927A3
:1013F000EE0F979587950895D4D008F481E008956D
:101400000CD00AC102D140F0F9D030F021F45F3F96
:1014100019F0EBC0511134C1EEC00FD198F39923EC
:10142000C9F35523B1F3951B550BBB27AA276217A8
:101430007307840738F09F5F5F4F220F331F441FED
:10144000AA1FA9F333D00E2E3AF0E0E830D0915025
:101450005040E695001CCAF729D0FE2F27D0660F12
:10146000771F881FBB1F261737074807AB07B0E851
:1014700009F0BB0B802DBF01FF2793585F4F2AF067
:101480009E3F510568F0B1C0FBC05F3FECF3983E52
:10149000DCF3869577956795B795F7959F5FC9F7C4
:1014A000880F911D9695879597F90895E1E0660F4D
:1014B000771F881FBB1F621773078407BA0720F0C6
:1014C000621B730B840BBA0BEE1F88F7E09508952F
:1014D000BCD088F09F5790F0B92F9927B751A0F052
:1014E000D1F0660F771F881F991F1AF0BA95C9F7B8
:1014F00012C0B13081F0C3D0B1E00895C0C0672FF1
:10150000782F8827B85F39F0B93FCCF38695779567
:101510006795B395D9F73EF4909580957095619550
:101520007F4F8F4F9F4F0895E89409C097FB3EF47B
:1015300090958095709561957F4F8F4F9F4F992320
:10154000A9F0F92F96E9BB279395F695879577959E
:101550006795B795F111F8CFFAF4BB0F11F460FF5E
:101560001BC06F5F7F4F8F4F9F4F16C0882311F0B6
:1015700096E911C0772321F09EE8872F762F05C0CA
:10158000662371F096E8862F70E060E02AF09A9565
:10159000660F771F881FDAF7880F9695879597F95A
:1015A0000895990F0008550FAA0BE0E8FEEF1616F4
:1015B0001706E807F907C0F012161306E407F50747
:1015C00098F0621B730B840B950B39F40A2661F0BB
:1015D000232B242B252B21F408950A2609F4A1405E
:1015E000A6958FEF811D811D089597F99F6780E86B
:1015F00070E060E008959FEF80EC089500240A9465
:101600001616170618060906089500240A941216DD
:101610001306140605060895092E0394000C11F410
:10162000882352F0BB0F40F4BF2B11F460FF04C0BD
:101630006F5F7F4F8F4F9F4F089557FD9058440F16
:10164000551F59F05F3F71F04795880F97FB991F21
:1016500061F09F3F79F087950895121613061406DE
:10166000551FF2CF4695F1DF08C01616170618066B
:10167000991FF1CF86957105610508940895E89446
:10168000BB2766277727CB0197F908958ADF08F4EF
:101690008FEF08950BD0C0CFB1DF28F0B6DF18F080
:1016A000952309F0A2CFA7CF1124EACFC6DFA0F37C
:1016B000959FD1F3950F50E0551F629FF001729FE7
:1016C000BB27F00DB11D639FAA27F00DB11DAA1F06
:1016D000649F6627B00DA11D661F829F2227B00D53
:1016E000A11D621F739FB00DA11D621F839FA00DDE
:1016F000611D221F749F3327A00D611D231F849F2E
:10170000600D211D822F762F6A2F11249F57504084
:101710008AF0E1F088234AF0EE0FFF1FBB1F661F1F
:10172000771F881F91505040A9F79E3F510570F0D8
:101730005CCFA6CF5F3FECF3983EDCF386957795C0
:101740006795B795F795E7959F5FC1F7FE2B880FD3
:10175000911D9695879597F9089597FB072E16F496
:10176000009406D077FD08D01AD007FC05D03EF4CF
:10177000909581959F4F0895709561957F4F08953D
:10178000A29FB001B39FC001A39F700D811D1124C2
:10179000911DB29F700D811D1124911D0895AA1BEA
:1017A000BB1B51E107C0AA1FBB1FA617B70710F04C
:1017B000A61BB70B881F991F5A95A9F7809590957E
:0A17C000BC01CD010895F894FFCF9D
:1017CA006D6F74696F6E007365636F6E6420203A83
:1017DA0020006C617267657374203A2000656C6141
:1017EA007073650066696C74657200736F6E696305
:1017FA00006C6F636174696F6E203A20303030205C
:10180A0020007365742057617463682020202020AB
:10181A00202000736574206C6F636174696F6E00B9
:10182A001E1E0C070A0D0003060900000001010133
:02183A000100AB
:00000001FF
